{
  "contractName": "Hashland",
  "abi": [
    {
      "constant": true,
      "inputs": [
        {
          "name": "",
          "type": "uint256"
        }
      ],
      "name": "landowners",
      "outputs": [
        {
          "name": "id",
          "type": "uint256"
        },
        {
          "name": "firstname",
          "type": "string"
        },
        {
          "name": "owneraddress",
          "type": "address"
        },
        {
          "name": "NationalId",
          "type": "string"
        },
        {
          "name": "lastname",
          "type": "string"
        }
      ],
      "payable": false,
      "stateMutability": "view",
      "type": "function"
    },
    {
      "constant": true,
      "inputs": [],
      "name": "landcount",
      "outputs": [
        {
          "name": "",
          "type": "uint256"
        }
      ],
      "payable": false,
      "stateMutability": "view",
      "type": "function"
    },
    {
      "constant": true,
      "inputs": [],
      "name": "ownercount",
      "outputs": [
        {
          "name": "",
          "type": "uint256"
        }
      ],
      "payable": false,
      "stateMutability": "view",
      "type": "function"
    },
    {
      "constant": true,
      "inputs": [
        {
          "name": "",
          "type": "uint256"
        }
      ],
      "name": "lands",
      "outputs": [
        {
          "name": "id",
          "type": "uint256"
        },
        {
          "name": "document",
          "type": "string"
        }
      ],
      "payable": false,
      "stateMutability": "view",
      "type": "function"
    },
    {
      "inputs": [],
      "payable": false,
      "stateMutability": "nonpayable",
      "type": "constructor"
    },
    {
      "anonymous": false,
      "inputs": [
        {
          "indexed": false,
          "name": "message",
          "type": "string"
        }
      ],
      "name": "ownercreated",
      "type": "event"
    },
    {
      "anonymous": false,
      "inputs": [
        {
          "indexed": false,
          "name": "message",
          "type": "string"
        }
      ],
      "name": "addlandOwner",
      "type": "event"
    },
    {
      "constant": false,
      "inputs": [
        {
          "name": "firstname",
          "type": "string"
        },
        {
          "name": "lastname",
          "type": "string"
        },
        {
          "name": "owneraddress",
          "type": "address"
        },
        {
          "name": "nationalid",
          "type": "string"
        }
      ],
      "name": "addowner",
      "outputs": [],
      "payable": false,
      "stateMutability": "nonpayable",
      "type": "function"
    },
    {
      "constant": false,
      "inputs": [
        {
          "name": "document",
          "type": "string"
        }
      ],
      "name": "addland",
      "outputs": [
        {
          "name": "",
          "type": "uint256"
        }
      ],
      "payable": false,
      "stateMutability": "nonpayable",
      "type": "function"
    },
    {
      "constant": true,
      "inputs": [
        {
          "name": "a",
          "type": "string"
        },
        {
          "name": "b",
          "type": "string"
        }
      ],
      "name": "compareStrings",
      "outputs": [
        {
          "name": "",
          "type": "bool"
        }
      ],
      "payable": false,
      "stateMutability": "view",
      "type": "function"
    },
    {
      "constant": false,
      "inputs": [
        {
          "name": "document",
          "type": "string"
        },
        {
          "name": "owneraddress",
          "type": "address"
        }
      ],
      "name": "addLandtoOwner",
      "outputs": [],
      "payable": false,
      "stateMutability": "nonpayable",
      "type": "function"
    },
    {
      "constant": false,
      "inputs": [
        {
          "name": "id",
          "type": "uint256"
        }
      ],
      "name": "displayLand",
      "outputs": [
        {
          "name": "",
          "type": "string"
        }
      ],
      "payable": false,
      "stateMutability": "nonpayable",
      "type": "function"
    },
    {
      "constant": false,
      "inputs": [
        {
          "name": "id",
          "type": "uint256"
        }
      ],
      "name": "displayLandofOwner",
      "outputs": [
        {
          "name": "",
          "type": "string"
        }
      ],
      "payable": false,
      "stateMutability": "nonpayable",
      "type": "function"
    }
  ],
  "bytecode": "0x60806040526000805534801561001457600080fd5b5060006001819055506116fd8061002c6000396000f3fe608060405234801561001057600080fd5b506004361061009e5760003560e01c806372bc1b0e1161006657806372bc1b0e146105d15780639a0b5b63146105ef578063bed34bba146106be578063e261f1e514610828578063f427457c146108d65761009e565b806304d04106146100a35780631e9b74ce146102ac578063200302c11461046557806323e6267a1461050c57806370e668e51461052a575b600080fd5b6102aa600480360360808110156100b957600080fd5b81019080803590602001906401000000008111156100d657600080fd5b8201836020820111156100e857600080fd5b8035906020019184600183028401116401000000008311171561010a57600080fd5b91908080601f016020809104026020016040519081016040528093929190818152602001838380828437600081840152601f19601f8201169050808301925050505050505091929192908035906020019064010000000081111561016d57600080fd5b82018360208201111561017f57600080fd5b803590602001918460018302840111640100000000831117156101a157600080fd5b91908080601f016020809104026020016040519081016040528093929190818152602001838380828437600081840152601f19601f820116905080830192505050505050509192919290803573ffffffffffffffffffffffffffffffffffffffff1690602001909291908035906020019064010000000081111561022457600080fd5b82018360208201111561023657600080fd5b8035906020019184600183028401116401000000008311171561025857600080fd5b91908080601f016020809104026020016040519081016040528093929190818152602001838380828437600081840152601f19601f8201169050808301925050505050505091929192905050506109b1565b005b6102d8600480360360208110156102c257600080fd5b8101908080359060200190929190505050610b9b565b60405180868152602001806020018573ffffffffffffffffffffffffffffffffffffffff1673ffffffffffffffffffffffffffffffffffffffff1681526020018060200180602001848103845288818151815260200191508051906020019080838360005b8381101561035857808201518184015260208101905061033d565b50505050905090810190601f1680156103855780820380516001836020036101000a031916815260200191505b50848103835286818151815260200191508051906020019080838360005b838110156103be5780820151818401526020810190506103a3565b50505050905090810190601f1680156103eb5780820380516001836020036101000a031916815260200191505b50848103825285818151815260200191508051906020019080838360005b83811015610424578082015181840152602081019050610409565b50505050905090810190601f1680156104515780820380516001836020036101000a031916815260200191505b509850505050505050505060405180910390f35b6104916004803603602081101561047b57600080fd5b8101908080359060200190929190505050610db9565b6040518080602001828103825283818151815260200191508051906020019080838360005b838110156104d15780820151818401526020810190506104b6565b50505050905090810190601f1680156104fe5780820380516001836020036101000a031916815260200191505b509250505060405180910390f35b6105146110cb565b6040518082815260200191505060405180910390f35b6105566004803603602081101561054057600080fd5b81019080803590602001909291905050506110d1565b6040518080602001828103825283818151815260200191508051906020019080838360005b8381101561059657808201518184015260208101905061057b565b50505050905090810190601f1680156105c35780820380516001836020036101000a031916815260200191505b509250505060405180910390f35b6105d96111bc565b6040518082815260200191505060405180910390f35b6106a86004803603602081101561060557600080fd5b810190808035906020019064010000000081111561062257600080fd5b82018360208201111561063457600080fd5b8035906020019184600183028401116401000000008311171561065657600080fd5b91908080601f016020809104026020016040519081016040528093929190818152602001838380828437600081840152601f19601f8201169050808301925050505050505091929192905050506111c2565b6040518082815260200191505060405180910390f35b61080e600480360360408110156106d457600080fd5b81019080803590602001906401000000008111156106f157600080fd5b82018360208201111561070357600080fd5b8035906020019184600183028401116401000000008311171561072557600080fd5b91908080601f016020809104026020016040519081016040528093929190818152602001838380828437600081840152601f19601f8201169050808301925050505050505091929192908035906020019064010000000081111561078857600080fd5b82018360208201111561079a57600080fd5b803590602001918460018302840111640100000000831117156107bc57600080fd5b91908080601f016020809104026020016040519081016040528093929190818152602001838380828437600081840152601f19601f82011690508083019250505050505050919291929050505061124b565b604051808215151515815260200191505060405180910390f35b6108546004803603602081101561083e57600080fd5b810190808035906020019092919050505061133a565b6040518083815260200180602001828103825283818151815260200191508051906020019080838360005b8381101561089a57808201518184015260208101905061087f565b50505050905090810190601f1680156108c75780820380516001836020036101000a031916815260200191505b50935050505060405180910390f35b6109af600480360360408110156108ec57600080fd5b810190808035906020019064010000000081111561090957600080fd5b82018360208201111561091b57600080fd5b8035906020019184600183028401116401000000008311171561093d57600080fd5b91908080601f016020809104026020016040519081016040528093929190818152602001838380828437600081840152601f19601f820116905080830192505050505050509192919290803573ffffffffffffffffffffffffffffffffffffffff169060200190929190505050611403565b005b60008451116109bf57600080fd5b60008351116109cd57600080fd5b600d8151146109db57600080fd5b60016000815480929190600101919050555060015460026000600154815260200190815260200160002060000181905550836002600060015481526020019081526020016000206001019080519060200190610a38929190611546565b508160026000600154815260200190815260200160002060020160006101000a81548173ffffffffffffffffffffffffffffffffffffffff021916908373ffffffffffffffffffffffffffffffffffffffff160217905550806002600060015481526020019081526020016000206003019080519060200190610abc929190611546565b50826002600060015481526020019081526020016000206004019080519060200190610ae9929190611546565b50600260006001548152602001908152602001600020600501600090806001815401808255809150509060018203906000526020600020016000909192909190915055507f355ffc255d58388f566b9e696e58d36e0c9eccbeff61cdb9af1bca35dbcc5ed960405180806020018281038252601a8152602001807f4f776e65722063726561746564207375636365737366756c6c7900000000000081525060200191505060405180910390a150505050565b6002602052806000526040600020600091509050806000015490806001018054600181600116156101000203166002900480601f016020809104026020016040519081016040528092919081815260200182805460018160011615610100020316600290048015610c4d5780601f10610c2257610100808354040283529160200191610c4d565b820191906000526020600020905b815481529060010190602001808311610c3057829003601f168201915b5050505050908060020160009054906101000a900473ffffffffffffffffffffffffffffffffffffffff1690806003018054600181600116156101000203166002900480601f016020809104026020016040519081016040528092919081815260200182805460018160011615610100020316600290048015610d115780601f10610ce657610100808354040283529160200191610d11565b820191906000526020600020905b815481529060010190602001808311610cf457829003601f168201915b505050505090806004018054600181600116156101000203166002900480601f016020809104026020016040519081016040528092919081815260200182805460018160011615610100020316600290048015610daf5780601f10610d8457610100808354040283529160200191610daf565b820191906000526020600020905b815481529060010190602001808311610d9257829003601f168201915b5050505050905085565b6060610dc36115c6565b600260008481526020019081526020016000206040518060c001604052908160008201548152602001600182018054600181600116156101000203166002900480601f016020809104026020016040519081016040528092919081815260200182805460018160011615610100020316600290048015610e845780601f10610e5957610100808354040283529160200191610e84565b820191906000526020600020905b815481529060010190602001808311610e6757829003601f168201915b505050505081526020016002820160009054906101000a900473ffffffffffffffffffffffffffffffffffffffff1673ffffffffffffffffffffffffffffffffffffffff1673ffffffffffffffffffffffffffffffffffffffff168152602001600382018054600181600116156101000203166002900480601f016020809104026020016040519081016040528092919081815260200182805460018160011615610100020316600290048015610f7c5780601f10610f5157610100808354040283529160200191610f7c565b820191906000526020600020905b815481529060010190602001808311610f5f57829003601f168201915b50505050508152602001600482018054600181600116156101000203166002900480601f01602080910402602001604051908101604052809291908181526020018280546001816001161561010002031660029004801561101e5780601f10610ff35761010080835404028352916020019161101e565b820191906000526020600020905b81548152906001019060200180831161100157829003601f168201915b505050505081526020016005820180548060200260200160405190810160405280929190818152602001828054801561107657602002820191906000526020600020905b815481526020019060010190808311611062575b505050505081525050905060608160a00151905060008090505b81518110156110c3576110b58282815181106110a857fe5b60200260200101516110d1565b508080600101915050611090565b505050919050565b60005481565b60606110db611612565b600383815481106110e857fe5b906000526020600020906002020160405180604001604052908160008201548152602001600182018054600181600116156101000203166002900480601f0160208091040260200160405190810160405280929190818152602001828054600181600116156101000203166002900480156111a45780601f10611179576101008083540402835291602001916111a4565b820191906000526020600020905b81548152906001019060200180831161118757829003601f168201915b50505050508152505090508060200151915050919050565b60015481565b60006111cc611612565b604051806040016040528060005481526020018481525090506003819080600181540180825580915050906001820390600052602060002090600202016000909192909190915060008201518160000155602082015181600101908051906020019061123992919061162c565b50505050600380549050915050919050565b6000816040516020018082805190602001908083835b602083106112845780518252602082019150602081019050602083039250611261565b6001836020036101000a03801982511681845116808217855250505050505090500191505060405160208183030381529060405280519060200120836040516020018082805190602001908083835b602083106112f657805182526020820191506020810190506020830392506112d3565b6001836020036101000a0380198251168184511680821785525050505050509050019150506040516020818303038152906040528051906020012014905092915050565b6003818154811061134757fe5b9060005260206000209060020201600091509050806000015490806001018054600181600116156101000203166002900480601f0160208091040260200160405190810160405280929190818152602001828054600181600116156101000203166002900480156113f95780601f106113ce576101008083540402835291602001916113f9565b820191906000526020600020905b8154815290600101906020018083116113dc57829003601f168201915b5050505050905082565b60008090505b6001548110156114d9578173ffffffffffffffffffffffffffffffffffffffff166002600083815260200190815260200160002060020160009054906101000a900473ffffffffffffffffffffffffffffffffffffffff1673ffffffffffffffffffffffffffffffffffffffff1614156114cc576000611488846111c2565b905060026000838152602001908152602001600020600501819080600181540180825580915050906001820390600052602060002001600090919290919091505550505b8080600101915050611409565b507f592251f2d149c9a32f1c82950476d7cbdff1382875f63c537c7fa7aa86bfcd0e60405180806020018281038252601d8152602001807f6c616e64204f776e6572204164646564207375636365737366756c6c7900000081525060200191505060405180910390a15050565b828054600181600116156101000203166002900490600052602060002090601f016020900481019282601f1061158757805160ff19168380011785556115b5565b828001600101855582156115b5579182015b828111156115b4578251825591602001919060010190611599565b5b5090506115c291906116ac565b5090565b6040518060c001604052806000815260200160608152602001600073ffffffffffffffffffffffffffffffffffffffff1681526020016060815260200160608152602001606081525090565b604051806040016040528060008152602001606081525090565b828054600181600116156101000203166002900490600052602060002090601f016020900481019282601f1061166d57805160ff191683800117855561169b565b8280016001018555821561169b579182015b8281111561169a57825182559160200191906001019061167f565b5b5090506116a891906116ac565b5090565b6116ce91905b808211156116ca5760008160009055506001016116b2565b5090565b9056fea165627a7a723058202e0c10223ce2fb5735427d2a5a7cb54eeff07c5551752112b14bab836599995f0029",
  "source": "pragma solidity >=0.4.22 <0.6.0;\r\n\r\ncontract Hashland{\r\n    \r\n    struct land{\r\n        uint id;\r\n        string document;\r\n        \r\n    }\r\n    \r\n    struct owner{\r\n        uint id;\r\n        string firstname;\r\n        address owneraddress;\r\n        string NationalId;\r\n        string lastname;\r\n        uint[] landsid;\r\n    }\r\n    \r\n    event ownercreated(string message);\r\n    event addlandOwner(string message);\r\n    \r\n    \r\n        \r\n    uint public landcount=0;\r\n    uint256 public ownercount;\r\n    mapping (uint=>owner) public landowners;\r\n    \r\n     constructor() public {\r\n       ownercount = 0;\r\n   }\r\n    \r\n    function addowner(string memory firstname,string memory lastname, address owneraddress, string memory nationalid)public{\r\n        //require that landcommission agent does not add land to his account\r\n        //require(owneraddress!=msg.sender);\r\n        require(bytes(firstname).length>0);\r\n        require(bytes(lastname).length>0);\r\n        require(bytes(nationalid).length==13);\r\n        ownercount++;\r\n        landowners[ownercount].id = ownercount;\r\n        landowners[ownercount].firstname = firstname;\r\n        landowners[ownercount].owneraddress = owneraddress;\r\n        landowners[ownercount].NationalId = nationalid;\r\n        landowners[ownercount].lastname = lastname;\r\n        landowners[ownercount].landsid.push(0);\r\n        emit ownercreated(\"Owner created successfully\"); \r\n    }\r\n    \r\n    land[] public lands;\r\n    \r\n    //function to add land to the blockchain\r\n    function addland(string memory document)public returns(uint){\r\n        land memory newLand=land(landcount,document);\r\n        lands.push(newLand);\r\n        return(lands.length);\r\n        \r\n    }\r\n    \r\n  \r\n   //function to compare strings\r\n  function compareStrings (string memory a, string memory b) public view \r\n       returns (bool) {\r\n  return (keccak256(abi.encodePacked((a))) == keccak256(abi.encodePacked((b))) );\r\n\r\n       }\r\n   \r\n    \r\n    //this code works by updating the landsid array in the owner struct\r\n    function addLandtoOwner(string memory document,address owneraddress) public{\r\n        for(uint256 i =0; i< ownercount; i++){\r\n           if(landowners[i].owneraddress==owneraddress){\r\n               uint id=addland(document);\r\n               landowners[i].landsid.push(id);\r\n                 \r\n               //return true;\r\n            \r\n           }\r\n       } \r\n       emit addlandOwner(\"land Owner Added successfully\");\r\n    }\r\n  \r\n  //function to display a single Land\r\n    function displayLand(uint id)public returns(string memory){\r\n        land memory newland=lands[id];\r\n        return (newland.document);\r\n    }\r\n    \r\n    //function to display lands of an owner\r\n    function displayLandofOwner(uint id)public returns(string memory){\r\n        owner memory LandOwner=landowners[id];\r\n        uint[] memory allland=LandOwner.landsid;\r\n        for(uint256 i =0; i< allland.length; i++){\r\n            displayLand(allland[i]);\r\n          \r\n    }\r\n    } \r\n   \r\n}",
  "sourcePath": "C:/Users/deedat/Desktop/hashland/contracts/Hashland.sol",
  "compiler": {
    "name": "solc",
    "version": "0.5.8+commit.23d335f2.Emscripten.clang"
  },
  "schemaVersion": "3.0.16",
  "updatedAt": "2019-11-21T23:24:17.447Z",
  "devdoc": {
    "methods": {}
  },
  "userdoc": {
    "methods": {}
  }
}