{
  "contractName": "landRegistration",
  "abi": [
    {
      "constant": true,
      "inputs": [
        {
          "name": "",
          "type": "uint256"
        }
      ],
      "name": "all_land",
      "outputs": [
        {
          "name": "",
          "type": "uint256"
        }
      ],
      "payable": false,
      "stateMutability": "view",
      "type": "function"
    },
    {
      "constant": true,
      "inputs": [
        {
          "name": "",
          "type": "uint256"
        }
      ],
      "name": "land",
      "outputs": [
        {
          "name": "region",
          "type": "string"
        },
        {
          "name": "district",
          "type": "string"
        },
        {
          "name": "land_area",
          "type": "string"
        },
        {
          "name": "surveyNumber",
          "type": "uint256"
        },
        {
          "name": "CurrentOwner",
          "type": "address"
        },
        {
          "name": "marketValue",
          "type": "uint256"
        },
        {
          "name": "isAvailable",
          "type": "bool"
        },
        {
          "name": "requester",
          "type": "address"
        },
        {
          "name": "requestStatus",
          "type": "uint8"
        },
        {
          "name": "width",
          "type": "uint256"
        },
        {
          "name": "length",
          "type": "uint256"
        }
      ],
      "payable": false,
      "stateMutability": "view",
      "type": "function"
    },
    {
      "constant": true,
      "inputs": [],
      "name": "id",
      "outputs": [
        {
          "name": "",
          "type": "uint256"
        }
      ],
      "payable": false,
      "stateMutability": "view",
      "type": "function"
    },
    {
      "inputs": [],
      "payable": false,
      "stateMutability": "nonpayable",
      "type": "constructor"
    },
    {
      "anonymous": false,
      "inputs": [
        {
          "indexed": false,
          "name": "message",
          "type": "string"
        }
      ],
      "name": "registered",
      "type": "event"
    },
    {
      "anonymous": false,
      "inputs": [
        {
          "indexed": false,
          "name": "",
          "type": "uint256"
        }
      ],
      "name": "lid",
      "type": "event"
    },
    {
      "constant": false,
      "inputs": [
        {
          "name": "_superAdmin",
          "type": "address"
        },
        {
          "name": "_land_area",
          "type": "string"
        }
      ],
      "name": "addSuperAdmin",
      "outputs": [],
      "payable": false,
      "stateMutability": "nonpayable",
      "type": "function"
    },
    {
      "constant": false,
      "inputs": [
        {
          "name": "_region",
          "type": "string"
        },
        {
          "name": "_district",
          "type": "string"
        },
        {
          "name": "_land_area",
          "type": "string"
        },
        {
          "name": "_surveyNumber",
          "type": "uint256"
        },
        {
          "name": "_OwnerAddress",
          "type": "address"
        },
        {
          "name": "_marketValue",
          "type": "uint256"
        },
        {
          "name": "_name",
          "type": "string"
        },
        {
          "name": "_width",
          "type": "uint256"
        },
        {
          "name": "_length",
          "type": "uint256"
        },
        {
          "name": "_IDnumber",
          "type": "string"
        }
      ],
      "name": "Registration",
      "outputs": [
        {
          "name": "",
          "type": "bool"
        }
      ],
      "payable": false,
      "stateMutability": "nonpayable",
      "type": "function"
    },
    {
      "constant": true,
      "inputs": [
        {
          "name": "id",
          "type": "uint256"
        }
      ],
      "name": "landInfoOwner",
      "outputs": [
        {
          "name": "",
          "type": "string"
        },
        {
          "name": "",
          "type": "string"
        },
        {
          "name": "",
          "type": "string"
        },
        {
          "name": "",
          "type": "uint256"
        },
        {
          "name": "",
          "type": "bool"
        },
        {
          "name": "",
          "type": "address"
        },
        {
          "name": "",
          "type": "uint8"
        }
      ],
      "payable": false,
      "stateMutability": "view",
      "type": "function"
    },
    {
      "constant": true,
      "inputs": [
        {
          "name": "id",
          "type": "uint256"
        }
      ],
      "name": "landInfoUser",
      "outputs": [
        {
          "name": "",
          "type": "address"
        },
        {
          "name": "",
          "type": "uint256"
        },
        {
          "name": "",
          "type": "bool"
        },
        {
          "name": "",
          "type": "address"
        },
        {
          "name": "",
          "type": "uint8"
        }
      ],
      "payable": false,
      "stateMutability": "view",
      "type": "function"
    },
    {
      "constant": false,
      "inputs": [
        {
          "name": "_region",
          "type": "string"
        },
        {
          "name": "_district",
          "type": "string"
        },
        {
          "name": "_land_area",
          "type": "string"
        },
        {
          "name": "_surveyNumber",
          "type": "uint256"
        }
      ],
      "name": "computeId",
      "outputs": [
        {
          "name": "",
          "type": "uint256"
        }
      ],
      "payable": false,
      "stateMutability": "nonpayable",
      "type": "function"
    },
    {
      "constant": true,
      "inputs": [],
      "name": "allAssets",
      "outputs": [
        {
          "name": "all",
          "type": "uint256[]"
        }
      ],
      "payable": false,
      "stateMutability": "view",
      "type": "function"
    },
    {
      "constant": false,
      "inputs": [
        {
          "name": "id",
          "type": "uint256"
        }
      ],
      "name": "requstToLandOwner",
      "outputs": [],
      "payable": false,
      "stateMutability": "nonpayable",
      "type": "function"
    },
    {
      "constant": true,
      "inputs": [],
      "name": "viewAssets",
      "outputs": [
        {
          "name": "",
          "type": "uint256[]"
        }
      ],
      "payable": false,
      "stateMutability": "view",
      "type": "function"
    },
    {
      "constant": true,
      "inputs": [
        {
          "name": "property",
          "type": "uint256"
        }
      ],
      "name": "viewRequest",
      "outputs": [
        {
          "name": "",
          "type": "address"
        }
      ],
      "payable": false,
      "stateMutability": "view",
      "type": "function"
    },
    {
      "constant": false,
      "inputs": [
        {
          "name": "property",
          "type": "uint256"
        },
        {
          "name": "status",
          "type": "uint8"
        }
      ],
      "name": "processRequest",
      "outputs": [],
      "payable": false,
      "stateMutability": "nonpayable",
      "type": "function"
    },
    {
      "constant": false,
      "inputs": [
        {
          "name": "property",
          "type": "uint256"
        }
      ],
      "name": "makeAvailable",
      "outputs": [],
      "payable": false,
      "stateMutability": "nonpayable",
      "type": "function"
    },
    {
      "constant": false,
      "inputs": [
        {
          "name": "property",
          "type": "uint256"
        }
      ],
      "name": "buyProperty",
      "outputs": [],
      "payable": true,
      "stateMutability": "payable",
      "type": "function"
    },
    {
      "constant": true,
      "inputs": [
        {
          "name": "id",
          "type": "uint256"
        },
        {
          "name": "user",
          "type": "address"
        }
      ],
      "name": "findId",
      "outputs": [
        {
          "name": "",
          "type": "uint256"
        }
      ],
      "payable": false,
      "stateMutability": "view",
      "type": "function"
    }
  ],
  "bytecode": "0x6080604052600060055534801561001557600080fd5b5033600160006101000a81548173ffffffffffffffffffffffffffffffffffffffff021916908373ffffffffffffffffffffffffffffffffffffffff16021790555061274b806100666000396000f3fe6080604052600436106100f35760003560e01c80637ca34d291161008a578063ab05bae611610059578063ab05bae614610df4578063af640d0f14610edc578063baa39e0514610f07578063fdb10f5014610f42576100f3565b80637ca34d29146106fd578063861e465614610a825780639d01485f14610cb0578063a27664ee14610d85576100f3565b806355d61952116100c657806355d61952146104425780636c5ed939146106285780636fa830a61461066357806376d708d714610691576100f3565b80630d2d5dca146100f85780631d50a6c41461016457806326e8525014610378578063393a3dbf146103f3575b600080fd5b34801561010457600080fd5b5061010d610f8a565b6040518080602001828103825283818151815260200191508051906020019060200280838360005b83811015610150578082015181840152602081019050610135565b505050509050019250505060405180910390f35b34801561017057600080fd5b506103626004803603608081101561018757600080fd5b81019080803590602001906401000000008111156101a457600080fd5b8201836020820111156101b657600080fd5b803590602001918460018302840111640100000000831117156101d857600080fd5b91908080601f016020809104026020016040519081016040528093929190818152602001838380828437600081840152601f19601f8201169050808301925050505050505091929192908035906020019064010000000081111561023b57600080fd5b82018360208201111561024d57600080fd5b8035906020019184600183028401116401000000008311171561026f57600080fd5b91908080601f016020809104026020016040519081016040528093929190818152602001838380828437600081840152601f19601f820116905080830192505050505050509192919290803590602001906401000000008111156102d257600080fd5b8201836020820111156102e457600080fd5b8035906020019184600183028401116401000000008311171561030657600080fd5b91908080601f016020809104026020016040519081016040528093929190818152602001838380828437600081840152601f19601f82011690508083019250505050505050919291929080359060200190929190505050611022565b6040518082815260200191505060405180910390f35b34801561038457600080fd5b506103b16004803603602081101561039b57600080fd5b8101908080359060200190929190505050611160565b604051808273ffffffffffffffffffffffffffffffffffffffff1673ffffffffffffffffffffffffffffffffffffffff16815260200191505060405180910390f35b3480156103ff57600080fd5b5061042c6004803603602081101561041657600080fd5b810190808035906020019092919050505061119f565b6040518082815260200191505060405180910390f35b34801561044e57600080fd5b5061047b6004803603602081101561046557600080fd5b81019080803590602001909291905050506111c0565b60405180806020018060200180602001888152602001871515151581526020018673ffffffffffffffffffffffffffffffffffffffff1673ffffffffffffffffffffffffffffffffffffffff1681526020018560038111156104d957fe5b60ff16815260200184810384528b818151815260200191508051906020019080838360005b838110156105195780820151818401526020810190506104fe565b50505050905090810190601f1680156105465780820380516001836020036101000a031916815260200191505b5084810383528a818151815260200191508051906020019080838360005b8381101561057f578082015181840152602081019050610564565b50505050905090810190601f1680156105ac5780820380516001836020036101000a031916815260200191505b50848103825289818151815260200191508051906020019080838360005b838110156105e55780820151818401526020810190506105ca565b50505050905090810190601f1680156106125780820380516001836020036101000a031916815260200191505b509a505050505050505050505060405180910390f35b34801561063457600080fd5b506106616004803603602081101561064b57600080fd5b8101908080359060200190929190505050611489565b005b61068f6004803603602081101561067957600080fd5b8101908080359060200190929190505050611571565b005b34801561069d57600080fd5b506106a6611845565b6040518080602001828103825283818151815260200191508051906020019060200280838360005b838110156106e95780820151818401526020810190506106ce565b505050509050019250505060405180910390f35b34801561070957600080fd5b50610a68600480360361014081101561072157600080fd5b810190808035906020019064010000000081111561073e57600080fd5b82018360208201111561075057600080fd5b8035906020019184600183028401116401000000008311171561077257600080fd5b91908080601f016020809104026020016040519081016040528093929190818152602001838380828437600081840152601f19601f820116905080830192505050505050509192919290803590602001906401000000008111156107d557600080fd5b8201836020820111156107e757600080fd5b8035906020019184600183028401116401000000008311171561080957600080fd5b91908080601f016020809104026020016040519081016040528093929190818152602001838380828437600081840152601f19601f8201169050808301925050505050505091929192908035906020019064010000000081111561086c57600080fd5b82018360208201111561087e57600080fd5b803590602001918460018302840111640100000000831117156108a057600080fd5b91908080601f016020809104026020016040519081016040528093929190818152602001838380828437600081840152601f19601f82011690508083019250505050505050919291929080359060200190929190803573ffffffffffffffffffffffffffffffffffffffff169060200190929190803590602001909291908035906020019064010000000081111561093757600080fd5b82018360208201111561094957600080fd5b8035906020019184600183028401116401000000008311171561096b57600080fd5b91908080601f016020809104026020016040519081016040528093929190818152602001838380828437600081840152601f19601f8201169050808301925050505050505091929192908035906020019092919080359060200190929190803590602001906401000000008111156109e257600080fd5b8201836020820111156109f457600080fd5b80359060200191846001830284011164010000000083111715610a1657600080fd5b91908080601f016020809104026020016040519081016040528093929190818152602001838380828437600081840152601f19601f82011690508083019250505050505050919291929050505061189d565b604051808215151515815260200191505060405180910390f35b348015610a8e57600080fd5b50610abb60048036036020811015610aa557600080fd5b8101908080359060200190929190505050611d0b565b604051808060200180602001806020018c81526020018b73ffffffffffffffffffffffffffffffffffffffff1673ffffffffffffffffffffffffffffffffffffffff1681526020018a8152602001891515151581526020018873ffffffffffffffffffffffffffffffffffffffff1673ffffffffffffffffffffffffffffffffffffffff168152602001876003811115610b5157fe5b60ff16815260200186815260200185815260200184810384528f818151815260200191508051906020019080838360005b83811015610b9d578082015181840152602081019050610b82565b50505050905090810190601f168015610bca5780820380516001836020036101000a031916815260200191505b5084810383528e818151815260200191508051906020019080838360005b83811015610c03578082015181840152602081019050610be8565b50505050905090810190601f168015610c305780820380516001836020036101000a031916815260200191505b5084810382528d818151815260200191508051906020019080838360005b83811015610c69578082015181840152602081019050610c4e565b50505050905090810190601f168015610c965780820380516001836020036101000a031916815260200191505b509e50505050505050505050505050505060405180910390f35b348015610cbc57600080fd5b50610ce960048036036020811015610cd357600080fd5b8101908080359060200190929190505050611f87565b604051808673ffffffffffffffffffffffffffffffffffffffff1673ffffffffffffffffffffffffffffffffffffffff168152602001858152602001841515151581526020018373ffffffffffffffffffffffffffffffffffffffff1673ffffffffffffffffffffffffffffffffffffffff168152602001826003811115610d6d57fe5b60ff1681526020019550505050505060405180910390f35b348015610d9157600080fd5b50610dde60048036036040811015610da857600080fd5b8101908080359060200190929190803573ffffffffffffffffffffffffffffffffffffffff16906020019092919050505061206d565b6040518082815260200191505060405180910390f35b348015610e0057600080fd5b50610eda60048036036040811015610e1757600080fd5b81019080803573ffffffffffffffffffffffffffffffffffffffff16906020019092919080359060200190640100000000811115610e5457600080fd5b820183602082011115610e6657600080fd5b80359060200191846001830284011164010000000083111715610e8857600080fd5b91908080601f016020809104026020016040519081016040528093929190818152602001838380828437600081840152601f19601f820116905080830192505050505050509192919290505050612142565b005b348015610ee857600080fd5b50610ef1612250565b6040518082815260200191505060405180910390f35b348015610f1357600080fd5b50610f4060048036036020811015610f2a57600080fd5b8101908080359060200190929190505050612256565b005b348015610f4e57600080fd5b50610f8860048036036040811015610f6557600080fd5b8101908080359060200190929190803560ff1690602001909291905050506122f4565b005b6060600360003373ffffffffffffffffffffffffffffffffffffffff1673ffffffffffffffffffffffffffffffffffffffff16815260200190815260200160002060020180548060200260200160405190810160405280929190818152602001828054801561101857602002820191906000526020600020905b815481526020019060010190808311611004575b5050505050905090565b60006509184e72a000858585856040516020018085805190602001908083835b602083106110655780518252602082019150602081019050602083039250611042565b6001836020036101000a03801982511681845116808217855250505050505090500184805190602001908083835b602083106110b65780518252602082019150602081019050602083039250611093565b6001836020036101000a03801982511681845116808217855250505050505090500183805190602001908083835b6020831061110757805182526020820191506020810190506020830392506110e4565b6001836020036101000a0380198251168184511680821785525050505050509050018281526020019450505050506040516020818303038152906040528051906020012060001c8161115557fe5b069050949350505050565b600080600083815260200190815260200160002060060160019054906101000a900473ffffffffffffffffffffffffffffffffffffffff169050919050565b600481815481106111ac57fe5b906000526020600020016000915090505481565b60608060606000806000806000808981526020019081526020016000206000016000808a81526020019081526020016000206001016000808b81526020019081526020016000206002016000808c8152602001908152602001600020600301546000808d815260200190815260200160002060060160009054906101000a900460ff166000808e815260200190815260200160002060060160019054906101000a900473ffffffffffffffffffffffffffffffffffffffff166000808f815260200190815260200160002060060160159054906101000a900460ff16868054600181600116156101000203166002900480601f0160208091040260200160405190810160405280929190818152602001828054600181600116156101000203166002900480156113315780601f1061130657610100808354040283529160200191611331565b820191906000526020600020905b81548152906001019060200180831161131457829003601f168201915b50505050509650858054600181600116156101000203166002900480601f0160208091040260200160405190810160405280929190818152602001828054600181600116156101000203166002900480156113cd5780601f106113a2576101008083540402835291602001916113cd565b820191906000526020600020905b8154815290600101906020018083116113b057829003601f168201915b50505050509550848054600181600116156101000203166002900480601f0160208091040260200160405190810160405280929190818152602001828054600181600116156101000203166002900480156114695780601f1061143e57610100808354040283529160200191611469565b820191906000526020600020905b81548152906001019060200180831161144c57829003601f168201915b505050505094509650965096509650965096509650919395979092949650565b60008082815260200190815260200160002060060160009054906101000a900460ff166114b557600080fd5b3360008083815260200190815260200160002060060160016101000a81548173ffffffffffffffffffffffffffffffffffffffff021916908373ffffffffffffffffffffffffffffffffffffffff160217905550600080600083815260200190815260200160002060060160006101000a81548160ff021916908315150217905550600160008083815260200190815260200160002060060160156101000a81548160ff0219169083600381111561156957fe5b021790555050565b60038081111561157d57fe5b60008083815260200190815260200160002060060160159054906101000a900460ff1660038111156115ab57fe5b146115b557600080fd5b600a60008083815260200190815260200160002060050154816115d457fe5b0460008083815260200190815260200160002060050154013410156115f857600080fd5b60008082815260200190815260200160002060040160009054906101000a900473ffffffffffffffffffffffffffffffffffffffff1673ffffffffffffffffffffffffffffffffffffffff166108fc600080848152602001908152602001600020600501549081150290604051600060405180830381858888f19350505050158015611688573d6000803e3d6000fd5b506116c860008083815260200190815260200160002060040160009054906101000a900473ffffffffffffffffffffffffffffffffffffffff1682612447565b3360008083815260200190815260200160002060040160006101000a81548173ffffffffffffffffffffffffffffffffffffffff021916908373ffffffffffffffffffffffffffffffffffffffff160217905550600080600083815260200190815260200160002060060160006101000a81548160ff021916908315150217905550600080600083815260200190815260200160002060060160016101000a81548173ffffffffffffffffffffffffffffffffffffffff021916908373ffffffffffffffffffffffffffffffffffffffff160217905550600080600083815260200190815260200160002060060160156101000a81548160ff021916908360038111156117d157fe5b0217905550600360003373ffffffffffffffffffffffffffffffffffffffff1673ffffffffffffffffffffffffffffffffffffffff16815260200190815260200160002060020181908060018154018082558091505090600182039060005260206000200160009091929091909150555050565b6060600480548060200260200160405190810160405280929190818152602001828054801561189357602002820191906000526020600020905b81548152602001906001019080831161187f575b5050505050905090565b6000803373ffffffffffffffffffffffffffffffffffffffff1660028b6040518082805190602001908083835b602083106118ed57805182526020820191506020810190506020830392506118ca565b6001836020036101000a038019825116818451168082178552505050505050905001915050908152602001604051809103902060009054906101000a900473ffffffffffffffffffffffffffffffffffffffff1673ffffffffffffffffffffffffffffffffffffffff1614806119b057503373ffffffffffffffffffffffffffffffffffffffff16600160009054906101000a900473ffffffffffffffffffffffffffffffffffffffff1673ffffffffffffffffffffffffffffffffffffffff16145b6119b957600080fd5b6119c58c8c8c8c611022565b905060048190806001815401808255809150509060018203906000526020600020016000909192909190915055508b6000808381526020019081526020016000206000019080519060200190611a1c92919061264e565b508a6000808381526020019081526020016000206001019080519060200190611a4692919061264e565b50896000808381526020019081526020016000206002019080519060200190611a7092919061264e565b5088600080838152602001908152602001600020600301819055508760008083815260200190815260200160002060040160006101000a81548173ffffffffffffffffffffffffffffffffffffffff021916908373ffffffffffffffffffffffffffffffffffffffff16021790555086600080838152602001908152602001600020600501819055508460008083815260200190815260200160002060070181905550836000808381526020019081526020016000206008018190555085600360008a73ffffffffffffffffffffffffffffffffffffffff1673ffffffffffffffffffffffffffffffffffffffff1681526020019081526020016000206000019080519060200190611b8392919061264e565b5082600360008a73ffffffffffffffffffffffffffffffffffffffff1673ffffffffffffffffffffffffffffffffffffffff1681526020019081526020016000206001019080519060200190611bda92919061264e565b50600360008973ffffffffffffffffffffffffffffffffffffffff1673ffffffffffffffffffffffffffffffffffffffff1681526020019081526020016000206002018190806001815401808255809150509060018203906000526020600020016000909192909190915055506005600081548092919060010191905055507f5d2d5c377ae22254cc90d7ee5dea3d9f268fce70f0e98802c5bfba2272692b5a60405180806020018281038252601c8152602001807f6c616e642072656769737465726564207375636365737366756c6c790000000081525060200191505060405180910390a17f5e75eaf6d7e10c865920df8fdc376bb7529b93373388f5778a0837b4a9683c9b816040518082815260200191505060405180910390a160019150509a9950505050505050505050565b6000602052806000526040600020600091509050806000018054600181600116156101000203166002900480601f016020809104026020016040519081016040528092919081815260200182805460018160011615610100020316600290048015611db75780601f10611d8c57610100808354040283529160200191611db7565b820191906000526020600020905b815481529060010190602001808311611d9a57829003601f168201915b505050505090806001018054600181600116156101000203166002900480601f016020809104026020016040519081016040528092919081815260200182805460018160011615610100020316600290048015611e555780601f10611e2a57610100808354040283529160200191611e55565b820191906000526020600020905b815481529060010190602001808311611e3857829003601f168201915b505050505090806002018054600181600116156101000203166002900480601f016020809104026020016040519081016040528092919081815260200182805460018160011615610100020316600290048015611ef35780601f10611ec857610100808354040283529160200191611ef3565b820191906000526020600020905b815481529060010190602001808311611ed657829003601f168201915b5050505050908060030154908060040160009054906101000a900473ffffffffffffffffffffffffffffffffffffffff16908060050154908060060160009054906101000a900460ff16908060060160019054906101000a900473ffffffffffffffffffffffffffffffffffffffff16908060060160159054906101000a900460ff1690806007015490806008015490508b565b600080600080600080600087815260200190815260200160002060040160009054906101000a900473ffffffffffffffffffffffffffffffffffffffff166000808881526020019081526020016000206005015460008089815260200190815260200160002060060160009054906101000a900460ff166000808a815260200190815260200160002060060160019054906101000a900473ffffffffffffffffffffffffffffffffffffffff166000808b815260200190815260200160002060060160159054906101000a900460ff168494509450945094509450945091939590929450565b600080600090505b600360008473ffffffffffffffffffffffffffffffffffffffff1673ffffffffffffffffffffffffffffffffffffffff168152602001908152602001600020600201805490508110156121375783600360008573ffffffffffffffffffffffffffffffffffffffff1673ffffffffffffffffffffffffffffffffffffffff168152602001908152602001600020600201828154811061211057fe5b9060005260206000200154141561212a578091505061213c565b8080600101915050612075565b809150505b92915050565b6000600581905550600160009054906101000a900473ffffffffffffffffffffffffffffffffffffffff1673ffffffffffffffffffffffffffffffffffffffff163373ffffffffffffffffffffffffffffffffffffffff16146121a457600080fd5b816002826040518082805190602001908083835b602083106121db57805182526020820191506020810190506020830392506121b8565b6001836020036101000a038019825116818451168082178552505050505050905001915050908152602001604051809103902060006101000a81548173ffffffffffffffffffffffffffffffffffffffff021916908373ffffffffffffffffffffffffffffffffffffffff1602179055505050565b60055481565b3373ffffffffffffffffffffffffffffffffffffffff1660008083815260200190815260200160002060040160009054906101000a900473ffffffffffffffffffffffffffffffffffffffff1673ffffffffffffffffffffffffffffffffffffffff16146122c357600080fd5b600160008083815260200190815260200160002060060160006101000a81548160ff02191690831515021790555050565b3373ffffffffffffffffffffffffffffffffffffffff1660008084815260200190815260200160002060040160009054906101000a900473ffffffffffffffffffffffffffffffffffffffff1673ffffffffffffffffffffffffffffffffffffffff161461236157600080fd5b8060008084815260200190815260200160002060060160156101000a81548160ff0219169083600381111561239257fe5b0217905550600260038111156123a457fe5b8160038111156123b057fe5b141561244357600080600084815260200190815260200160002060060160016101000a81548173ffffffffffffffffffffffffffffffffffffffff021916908373ffffffffffffffffffffffffffffffffffffffff160217905550600080600084815260200190815260200160002060060160156101000a81548160ff0219169083600381111561243d57fe5b02179055505b5050565b6000612453828461206d565b9050600360008473ffffffffffffffffffffffffffffffffffffffff1673ffffffffffffffffffffffffffffffffffffffff1681526020019081526020016000206002016001600360008673ffffffffffffffffffffffffffffffffffffffff1673ffffffffffffffffffffffffffffffffffffffff1681526020019081526020016000206002018054905003815481106124ea57fe5b9060005260206000200154600360008573ffffffffffffffffffffffffffffffffffffffff1673ffffffffffffffffffffffffffffffffffffffff168152602001908152602001600020600201828154811061254257fe5b9060005260206000200181905550600360008473ffffffffffffffffffffffffffffffffffffffff1673ffffffffffffffffffffffffffffffffffffffff1681526020019081526020016000206002016001600360008673ffffffffffffffffffffffffffffffffffffffff1673ffffffffffffffffffffffffffffffffffffffff1681526020019081526020016000206002018054905003815481106125e557fe5b9060005260206000200160009055600360008473ffffffffffffffffffffffffffffffffffffffff1673ffffffffffffffffffffffffffffffffffffffff16815260200190815260200160002060020180548091906001900361264891906126ce565b50505050565b828054600181600116156101000203166002900490600052602060002090601f016020900481019282601f1061268f57805160ff19168380011785556126bd565b828001600101855582156126bd579182015b828111156126bc5782518255916020019190600101906126a1565b5b5090506126ca91906126fa565b5090565b8154818355818111156126f5578183600052602060002091820191016126f491906126fa565b5b505050565b61271c91905b80821115612718576000816000905550600101612700565b5090565b9056fea165627a7a723058208a203f0d6a33e94d6744cba830619ee6d5f64af62a0f0c7e27a78d4d3518fc410029",
  "source": "pragma solidity >=0.4.0 <0.6.0;\n\n//Land Details\ncontract landRegistration{\n    struct landDetails{\n        string region;\n        string district;\n        string land_area;\n        uint256 surveyNumber;\n        address payable CurrentOwner;\n        uint marketValue;\n        bool isAvailable;\n        address requester;\n        reqStatus requestStatus;\n        uint width;\n        uint length;\n        // string documentHash;\n\n    }\n    \n\n    //request status\n    enum reqStatus {Default,pending,reject,approved}\n\n\n\n    //profile of a client\n    struct profiles{\n        string name;\n        string NationalID;\n        uint[] assetList;   \n        }\n\n \n    mapping(uint => landDetails) public land;\n    address owner;\n    mapping(string => address) superAdmin;\n    mapping(address => profiles) profile;\n    uint[] public all_land;\n    uint public id=0;\n    event registered(string message);\n    event lid(uint);\n    \n    //contract owner\n    constructor() public{\n        owner = msg.sender;\n        \n    }\n    modifier onlyOwner {\n        id = 0;\n        require(msg.sender == owner);\n        _;\n    }\n    \n    //adding land_area admins\n    function addSuperAdmin(address _superAdmin,string memory _land_area ) onlyOwner public {\n        superAdmin[_land_area] =_superAdmin;\n    }\n    //Registration of land details.\n    function Registration(string memory _region,string memory _district,\n        string memory _land_area,uint256 _surveyNumber,\n        address payable _OwnerAddress,uint _marketValue,string memory _name, uint _width,\n        uint _length, string memory _IDnumber\n        ) public returns(bool) {\n            uint landid;\n       require(superAdmin[_land_area] == msg.sender || owner == msg.sender);\n       landid=computeId(_region,_district,_land_area,_surveyNumber);\n        all_land.push(landid);\n        land[landid].region = _region;\n        land[landid].district = _district;\n        land[landid].land_area = _land_area;\n        land[landid].surveyNumber = _surveyNumber;\n        land[landid].CurrentOwner = _OwnerAddress;\n        land[landid].marketValue = _marketValue;\n        land[landid].width = _width;\n        land[landid].length = _length;\n        // land[landid].documentHash = _dochash;\n\n        profile[_OwnerAddress].name = _name;\n        \n         profile[_OwnerAddress].NationalID = _IDnumber;\n          \n        profile[_OwnerAddress].assetList.push(landid);\n        id++;\n        emit registered(\"land registered successfully\");\n        emit lid(landid);\n        return true;\n    }\n    //to view details of land for the owner\n    function landInfoOwner(uint id) public view returns(string memory,string memory,string memory,uint256,bool,address,reqStatus){\n        return(land[id].region,land[id].district,land[id].land_area,land[id].surveyNumber,land[id].isAvailable,land[id].requester,land[id].requestStatus);\n    }\n        //to view details of land for the buyer\n        function landInfoUser(uint id) public view returns(address,uint,bool,address,reqStatus){\n        return(land[id].CurrentOwner,land[id].marketValue,land[id].isAvailable,land[id].requester,land[id].requestStatus);\n    }\n\n    // to compute id for a land.\n    function computeId(string memory _region,string memory _district,string memory _land_area,uint _surveyNumber) public  returns(uint){\n        return uint(keccak256(abi.encodePacked(_region,_district,_land_area,_surveyNumber)))%10000000000000;\n    }\n\n    function allAssets() public view returns (uint[] memory all){\n        return(all_land);\n    }\n\n    //push a request to the land owner\n    function requstToLandOwner (uint id) public {\n        require(land[id].isAvailable);\n        land[id].requester=msg.sender;\n        land[id].isAvailable=false;\n        land[id].requestStatus = reqStatus.pending; //changes the status to pending.\n    }\n    //will show assets of the function caller \n    function viewAssets()public view returns(uint[] memory){\n        return (profile[msg.sender].assetList);\n    }\n    //viewing request for the lands\n    function viewRequest(uint property)public view returns(address){\n        return(land[property].requester);\n    }\n    //processing request for the land by accepting or rejecting\n    function processRequest(uint property,reqStatus status)public {\n        require(land[property].CurrentOwner == msg.sender);\n        land[property].requestStatus=status;\n        if(status == reqStatus.reject){\n            land[property].requester = address(0);\n            land[property].requestStatus = reqStatus.Default;\n        }\n    }\n    //availing land for sale.\n    function makeAvailable(uint property)public{\n        require(land[property].CurrentOwner == msg.sender);\n        land[property].isAvailable=true;\n    } \n    //buying the approved property\n    function buyProperty(uint property)public payable{\n        require(land[property].requestStatus == reqStatus.approved);\n        require(msg.value >= (land[property].marketValue+((land[property].marketValue)/10)));\n        land[property].CurrentOwner.transfer(land[property].marketValue);\n        removeOwnership(land[property].CurrentOwner,property);\n        land[property].CurrentOwner=msg.sender;\n        land[property].isAvailable=false;\n        land[property].requester = address(0);\n        land[property].requestStatus = reqStatus.Default;\n        profile[msg.sender].assetList.push(property); //adds the property to the asset list of the new owner.\n        \n    }\n    //removing the ownership of seller for the land. and it is called by the buyProperty function\n    function removeOwnership(address previousOwner,uint id)private{\n        uint index = findId(id,previousOwner);\n        profile[previousOwner].assetList[index]=profile[previousOwner].assetList[profile[previousOwner].assetList.length-1];\n        delete profile[previousOwner].assetList[profile[previousOwner].assetList.length-1];\n        profile[previousOwner].assetList.length--;\n    }\n    //for finding the index of a perticular id\n    function findId(uint id,address user)public view returns(uint){\n        uint i;\n        for(i=0;i<profile[user].assetList.length;i++){\n            if(profile[user].assetList[i] == id)\n                return i;\n        }\n        return i;\n    }\n}",
  "sourcePath": "C:/Users/deedat/Desktop/hashland/contracts/landRegistration.sol",
  "compiler": {
    "name": "solc",
    "version": "0.5.8+commit.23d335f2.Emscripten.clang"
  },
  "schemaVersion": "3.0.16",
  "updatedAt": "2019-11-21T23:24:18.241Z",
  "devdoc": {
    "methods": {}
  },
  "userdoc": {
    "methods": {}
  }
}